{
  "contractName": "Oracle",
  "abi": [
    {
      "inputs": [],
      "stateMutability": "nonpayable",
      "type": "constructor"
    },
    {
      "anonymous": false,
      "inputs": [],
      "name": "__callbackNewData",
      "type": "event"
    },
    {
      "inputs": [],
      "name": "asteroids_counter",
      "outputs": [
        {
          "internalType": "uint256",
          "name": "",
          "type": "uint256"
        }
      ],
      "stateMutability": "view",
      "type": "function",
      "constant": true
    },
    {
      "inputs": [],
      "name": "update",
      "outputs": [],
      "stateMutability": "nonpayable",
      "type": "function"
    },
    {
      "inputs": [
        {
          "internalType": "uint256",
          "name": "_count",
          "type": "uint256"
        }
      ],
      "name": "setAsteroidsCount",
      "outputs": [],
      "stateMutability": "nonpayable",
      "type": "function"
    }
  ],
  "bytecode": "0x608060405234801561001057600080fd5b50336000806101000a81548173ffffffffffffffffffffffffffffffffffffffff021916908373ffffffffffffffffffffffffffffffffffffffff16021790555061034f806100606000396000f3fe608060405234801561001057600080fd5b50600436106100415760003560e01c8063a2e6204514610046578063b7e3765e14610050578063ed16698e1461006e575b600080fd5b61004e61008a565b005b610058610146565b60405161006591906101fd565b60405180910390f35b61008860048036038101906100839190610249565b61014c565b005b60008054906101000a900473ffffffffffffffffffffffffffffffffffffffff1673ffffffffffffffffffffffffffffffffffffffff163373ffffffffffffffffffffffffffffffffffffffff1614610118576040517f08c379a000000000000000000000000000000000000000000000000000000000815260040161010f906102f9565b60405180910390fd5b7f2bfb84d8e96bf2a06daf6ebca52197c6c24fcd7c9c9c1f434c3bc9e59a92f1c160405160405180910390a1565b60015481565b60008054906101000a900473ffffffffffffffffffffffffffffffffffffffff1673ffffffffffffffffffffffffffffffffffffffff163373ffffffffffffffffffffffffffffffffffffffff16146101da576040517f08c379a00000000000000000000000000000000000000000000000000000000081526004016101d1906102f9565b60405180910390fd5b8060018190555050565b6000819050919050565b6101f7816101e4565b82525050565b600060208201905061021260008301846101ee565b92915050565b600080fd5b610226816101e4565b811461023157600080fd5b50565b6000813590506102438161021d565b92915050565b60006020828403121561025f5761025e610218565b5b600061026d84828501610234565b91505092915050565b600082825260208201905092915050565b7f596f75206d75737420626520746865206f776e657220746f207573652074686960008201527f73206d6574686f642e0000000000000000000000000000000000000000000000602082015250565b60006102e3602983610276565b91506102ee82610287565b604082019050919050565b60006020820190508181036000830152610312816102d6565b905091905056fea2646970667358221220e7506a716cf735ad65c0c155da6d9a47c2c8b5ce28ba9d56a4a3760c81ed125b64736f6c634300080a0033",
  "immutableReferences": {},
  "source": "// SPDX-License-Identifier: MIT\r\npragma solidity ^0.8.0;\r\n \r\ncontract Oracle {\r\n\r\n    address owner;\r\n    uint public asteroids_counter;\r\n    event __callbackNewData();\r\n\r\n    constructor () {\r\n        owner = msg.sender;\r\n    }\r\n\r\n    modifier OnlyOwner(){\r\n        require(msg.sender == owner, \"You must be the owner to use this method.\");\r\n        _;\r\n    }\r\n\r\n    function update() public OnlyOwner {\r\n        emit __callbackNewData();\r\n    }\r\n\r\n    function setAsteroidsCount(uint _count) public OnlyOwner {\r\n        asteroids_counter = _count;\r\n\r\n    }\r\n\r\n\r\n}",
  "sourcePath": "C:\\dev\\asteroids\\contracts\\Oracle.sol",
  "compiler": {
    "name": "solc",
    "version": "0.8.10+commit.fc410830.Emscripten.clang"
  },
  "schemaVersion": "3.4.4",
  "updatedAt": "2022-02-07T17:09:31.996Z",
  "networkType": "ethereum",
  "devdoc": {
    "kind": "dev",
    "methods": {},
    "version": 1
  },
  "userdoc": {
    "kind": "user",
    "methods": {},
    "version": 1
  }
}